:020000020000FC
:0200000004C139
:02002C001BC1F6
:020038002BC1DA
:10020000FC60DAF266B6BEE0FEF638980FEF0AB987
:1002100004B9F2E000E400937C0006EC00937A005D
:100220000DE30093890009E0009388000DE000933E
:10023000810002E000936F0002E004BD05E005BD0F
:1002400002E000936E00789401E003BF09E907BD66
:100250005C2D41E01ED05D2D42E01BD05E2D44E0C0
:1002600018D0F6CF00917A00006C00937A0000005D
:1002700020917800109179000DE7209F02E3101A79
:10028000612D0FD000917A000F7700937A001895B6
:10029000189545B9E50F000004910BB9EE27889534
:1002A0000895CC24DD24EE24643610F0C394645603
:0E02B0006A3018F0D3946A50FBCFE62E089502
:00000001FF
